{
  "_format": "hh3-artifact-1",
  "contractName": "LandRegistry",
  "sourceName": "contracts/LandRegistry.sol",
  "abi": [
    {
      "anonymous": false,
      "inputs": [
        {
          "indexed": true,
          "internalType": "uint256",
          "name": "landId",
          "type": "uint256"
        },
        {
          "indexed": true,
          "internalType": "address",
          "name": "owner",
          "type": "address"
        },
        {
          "indexed": false,
          "internalType": "string",
          "name": "title",
          "type": "string"
        }
      ],
      "name": "LandRegistered",
      "type": "event"
    },
    {
      "anonymous": false,
      "inputs": [
        {
          "indexed": true,
          "internalType": "uint256",
          "name": "landId",
          "type": "uint256"
        },
        {
          "indexed": true,
          "internalType": "address",
          "name": "from",
          "type": "address"
        },
        {
          "indexed": true,
          "internalType": "address",
          "name": "to",
          "type": "address"
        }
      ],
      "name": "OwnershipTransferred",
      "type": "event"
    },
    {
      "inputs": [
        {
          "internalType": "uint256",
          "name": "landId",
          "type": "uint256"
        }
      ],
      "name": "getLand",
      "outputs": [
        {
          "components": [
            {
              "internalType": "uint256",
              "name": "id",
              "type": "uint256"
            },
            {
              "internalType": "string",
              "name": "title",
              "type": "string"
            },
            {
              "internalType": "string",
              "name": "location",
              "type": "string"
            },
            {
              "internalType": "uint256",
              "name": "area",
              "type": "uint256"
            },
            {
              "internalType": "address",
              "name": "owner",
              "type": "address"
            },
            {
              "internalType": "bool",
              "name": "exists",
              "type": "bool"
            }
          ],
          "internalType": "struct LandRegistry.Land",
          "name": "",
          "type": "tuple"
        }
      ],
      "stateMutability": "view",
      "type": "function"
    },
    {
      "inputs": [
        {
          "internalType": "uint256",
          "name": "landId",
          "type": "uint256"
        }
      ],
      "name": "getOwnershipHistory",
      "outputs": [
        {
          "internalType": "address[]",
          "name": "",
          "type": "address[]"
        }
      ],
      "stateMutability": "view",
      "type": "function"
    },
    {
      "inputs": [
        {
          "internalType": "uint256",
          "name": "",
          "type": "uint256"
        }
      ],
      "name": "lands",
      "outputs": [
        {
          "internalType": "uint256",
          "name": "id",
          "type": "uint256"
        },
        {
          "internalType": "string",
          "name": "title",
          "type": "string"
        },
        {
          "internalType": "string",
          "name": "location",
          "type": "string"
        },
        {
          "internalType": "uint256",
          "name": "area",
          "type": "uint256"
        },
        {
          "internalType": "address",
          "name": "owner",
          "type": "address"
        },
        {
          "internalType": "bool",
          "name": "exists",
          "type": "bool"
        }
      ],
      "stateMutability": "view",
      "type": "function"
    },
    {
      "inputs": [],
      "name": "nextLandId",
      "outputs": [
        {
          "internalType": "uint256",
          "name": "",
          "type": "uint256"
        }
      ],
      "stateMutability": "view",
      "type": "function"
    },
    {
      "inputs": [
        {
          "internalType": "uint256",
          "name": "",
          "type": "uint256"
        },
        {
          "internalType": "uint256",
          "name": "",
          "type": "uint256"
        }
      ],
      "name": "ownershipHistory",
      "outputs": [
        {
          "internalType": "address",
          "name": "",
          "type": "address"
        }
      ],
      "stateMutability": "view",
      "type": "function"
    },
    {
      "inputs": [
        {
          "internalType": "string",
          "name": "title",
          "type": "string"
        },
        {
          "internalType": "string",
          "name": "location",
          "type": "string"
        },
        {
          "internalType": "uint256",
          "name": "area",
          "type": "uint256"
        }
      ],
      "name": "registerLand",
      "outputs": [
        {
          "internalType": "uint256",
          "name": "",
          "type": "uint256"
        }
      ],
      "stateMutability": "nonpayable",
      "type": "function"
    },
    {
      "inputs": [
        {
          "internalType": "uint256",
          "name": "landId",
          "type": "uint256"
        },
        {
          "internalType": "address",
          "name": "newOwner",
          "type": "address"
        }
      ],
      "name": "transferOwnership",
      "outputs": [],
      "stateMutability": "nonpayable",
      "type": "function"
    }
  ],
  "bytecode": "0x6080604052600160005534801561001557600080fd5b50611768806100256000396000f3fe608060405234801561001057600080fd5b506004361061007d5760003560e01c8063cb9bff701161005b578063cb9bff70146100ec578063e261f1e51461011c578063f02dd53f14610151578063f1dbaccb146101815761007d565b806329507f7314610082578063ad9a3eb01461009e578063c9cf2adc146100bc575b600080fd5b61009c60048036038101906100979190610cfb565b6101b1565b005b6100a661048d565b6040516100b39190610d4a565b60405180910390f35b6100d660048036038101906100d19190610d65565b610493565b6040516100e39190610db4565b60405180910390f35b61010660048036038101906101019190610e34565b6104e1565b6040516101139190610d4a565b60405180910390f35b61013660048036038101906101319190610ec9565b610759565b60405161014896959493929190610fa1565b60405180910390f35b61016b60048036038101906101669190610ec9565b6108d2565b6040516101789190611117565b60405180910390f35b61019b60048036038101906101969190610ec9565b610b0b565b6040516101a891906111e8565b60405180910390f35b816001600082815260200190815260200160002060040160149054906101000a900460ff16610215576040517f08c379a000000000000000000000000000000000000000000000000000000000815260040161020c90611256565b60405180910390fd5b6001600082815260200190815260200160002060040160009054906101000a900473ffffffffffffffffffffffffffffffffffffffff1673ffffffffffffffffffffffffffffffffffffffff163373ffffffffffffffffffffffffffffffffffffffff16146102b9576040517f08c379a00000000000000000000000000000000000000000000000000000000081526004016102b0906112c2565b60405180910390fd5b60006001600085815260200190815260200160002060040160009054906101000a900473ffffffffffffffffffffffffffffffffffffffff169050600073ffffffffffffffffffffffffffffffffffffffff168373ffffffffffffffffffffffffffffffffffffffff1603610363576040517f08c379a000000000000000000000000000000000000000000000000000000000815260040161035a9061132e565b60405180910390fd5b826001600086815260200190815260200160002060040160006101000a81548173ffffffffffffffffffffffffffffffffffffffff021916908373ffffffffffffffffffffffffffffffffffffffff16021790555060026000858152602001908152602001600020839080600181540180825580915050600190039060005260206000200160009091909190916101000a81548173ffffffffffffffffffffffffffffffffffffffff021916908373ffffffffffffffffffffffffffffffffffffffff1602179055508273ffffffffffffffffffffffffffffffffffffffff168173ffffffffffffffffffffffffffffffffffffffff16857f16b85f49bf01212961345d3016c9a531894accf62eb7680f2045d79185cc0ec060405160405180910390a450505050565b60005481565b600260205281600052604060002081815481106104af57600080fd5b906000526020600020016000915091509054906101000a900473ffffffffffffffffffffffffffffffffffffffff1681565b6000806000808154809291906104f69061137d565b9190505590506040518060c0016040528082815260200188888080601f016020809104026020016040519081016040528093929190818152602001838380828437600081840152601f19601f82011690508083019250505050505050815260200186868080601f016020809104026020016040519081016040528093929190818152602001838380828437600081840152601f19601f8201169050808301925050505050505081526020018481526020013373ffffffffffffffffffffffffffffffffffffffff16815260200160011515815250600160008381526020019081526020016000206000820151816000015560208201518160010190816105fc9190611600565b5060408201518160020190816106129190611600565b506060820151816003015560808201518160040160006101000a81548173ffffffffffffffffffffffffffffffffffffffff021916908373ffffffffffffffffffffffffffffffffffffffff16021790555060a08201518160040160146101000a81548160ff02191690831515021790555090505060026000828152602001908152602001600020339080600181540180825580915050600190039060005260206000200160009091909190916101000a81548173ffffffffffffffffffffffffffffffffffffffff021916908373ffffffffffffffffffffffffffffffffffffffff1602179055503373ffffffffffffffffffffffffffffffffffffffff16817f9c4ad74928fec1ee86181680df0e76bf575b79ea2a0347f7ed270884bdd26ad7898960405161074492919061170e565b60405180910390a38091505095945050505050565b600160205280600052604060002060009150905080600001549080600101805461078290611423565b80601f01602080910402602001604051908101604052809291908181526020018280546107ae90611423565b80156107fb5780601f106107d0576101008083540402835291602001916107fb565b820191906000526020600020905b8154815290600101906020018083116107de57829003601f168201915b50505050509080600201805461081090611423565b80601f016020809104026020016040519081016040528092919081815260200182805461083c90611423565b80156108895780601f1061085e57610100808354040283529160200191610889565b820191906000526020600020905b81548152906001019060200180831161086c57829003601f168201915b5050505050908060030154908060040160009054906101000a900473ffffffffffffffffffffffffffffffffffffffff16908060040160149054906101000a900460ff16905086565b6108da610c0f565b6001600083815260200190815260200160002060040160149054906101000a900460ff1661093d576040517f08c379a000000000000000000000000000000000000000000000000000000000815260040161093490611256565b60405180910390fd5b600160008381526020019081526020016000206040518060c00160405290816000820154815260200160018201805461097590611423565b80601f01602080910402602001604051908101604052809291908181526020018280546109a190611423565b80156109ee5780601f106109c3576101008083540402835291602001916109ee565b820191906000526020600020905b8154815290600101906020018083116109d157829003601f168201915b50505050508152602001600282018054610a0790611423565b80601f0160208091040260200160405190810160405280929190818152602001828054610a3390611423565b8015610a805780601f10610a5557610100808354040283529160200191610a80565b820191906000526020600020905b815481529060010190602001808311610a6357829003601f168201915b50505050508152602001600382015481526020016004820160009054906101000a900473ffffffffffffffffffffffffffffffffffffffff1673ffffffffffffffffffffffffffffffffffffffff1673ffffffffffffffffffffffffffffffffffffffff1681526020016004820160149054906101000a900460ff1615151515815250509050919050565b60606001600083815260200190815260200160002060040160149054906101000a900460ff16610b70576040517f08c379a0000000000000000000000000000000000000000000000000000000008152600401610b6790611256565b60405180910390fd5b60026000838152602001908152602001600020805480602002602001604051908101604052809291908181526020018280548015610c0357602002820191906000526020600020905b8160009054906101000a900473ffffffffffffffffffffffffffffffffffffffff1673ffffffffffffffffffffffffffffffffffffffff1681526020019060010190808311610bb9575b50505050509050919050565b6040518060c0016040528060008152602001606081526020016060815260200160008152602001600073ffffffffffffffffffffffffffffffffffffffff1681526020016000151581525090565b600080fd5b600080fd5b6000819050919050565b610c7a81610c67565b8114610c8557600080fd5b50565b600081359050610c9781610c71565b92915050565b600073ffffffffffffffffffffffffffffffffffffffff82169050919050565b6000610cc882610c9d565b9050919050565b610cd881610cbd565b8114610ce357600080fd5b50565b600081359050610cf581610ccf565b92915050565b60008060408385031215610d1257610d11610c5d565b5b6000610d2085828601610c88565b9250506020610d3185828601610ce6565b9150509250929050565b610d4481610c67565b82525050565b6000602082019050610d5f6000830184610d3b565b92915050565b60008060408385031215610d7c57610d7b610c5d565b5b6000610d8a85828601610c88565b9250506020610d9b85828601610c88565b9150509250929050565b610dae81610cbd565b82525050565b6000602082019050610dc96000830184610da5565b92915050565b600080fd5b600080fd5b600080fd5b60008083601f840112610df457610df3610dcf565b5b8235905067ffffffffffffffff811115610e1157610e10610dd4565b5b602083019150836001820283011115610e2d57610e2c610dd9565b5b9250929050565b600080600080600060608688031215610e5057610e4f610c5d565b5b600086013567ffffffffffffffff811115610e6e57610e6d610c62565b5b610e7a88828901610dde565b9550955050602086013567ffffffffffffffff811115610e9d57610e9c610c62565b5b610ea988828901610dde565b93509350506040610ebc88828901610c88565b9150509295509295909350565b600060208284031215610edf57610ede610c5d565b5b6000610eed84828501610c88565b91505092915050565b600081519050919050565b600082825260208201905092915050565b60005b83811015610f30578082015181840152602081019050610f15565b60008484015250505050565b6000601f19601f8301169050919050565b6000610f5882610ef6565b610f628185610f01565b9350610f72818560208601610f12565b610f7b81610f3c565b840191505092915050565b60008115159050919050565b610f9b81610f86565b82525050565b600060c082019050610fb66000830189610d3b565b8181036020830152610fc88188610f4d565b90508181036040830152610fdc8187610f4d565b9050610feb6060830186610d3b565b610ff86080830185610da5565b61100560a0830184610f92565b979650505050505050565b61101981610c67565b82525050565b600082825260208201905092915050565b600061103b82610ef6565b611045818561101f565b9350611055818560208601610f12565b61105e81610f3c565b840191505092915050565b61107281610cbd565b82525050565b61108181610f86565b82525050565b600060c08301600083015161109f6000860182611010565b50602083015184820360208601526110b78282611030565b915050604083015184820360408601526110d18282611030565b91505060608301516110e66060860182611010565b5060808301516110f96080860182611069565b5060a083015161110c60a0860182611078565b508091505092915050565b600060208201905081810360008301526111318184611087565b905092915050565b600081519050919050565b600082825260208201905092915050565b6000819050602082019050919050565b60006111718383611069565b60208301905092915050565b6000602082019050919050565b600061119582611139565b61119f8185611144565b93506111aa83611155565b8060005b838110156111db5781516111c28882611165565b97506111cd8361117d565b9250506001810190506111ae565b5085935050505092915050565b60006020820190508181036000830152611202818461118a565b905092915050565b7f4c616e64206e6f7420666f756e64000000000000000000000000000000000000600082015250565b6000611240600e83610f01565b915061124b8261120a565b602082019050919050565b6000602082019050818103600083015261126f81611233565b9050919050565b7f4f6e6c79206f776e657220616c6c6f7765640000000000000000000000000000600082015250565b60006112ac601283610f01565b91506112b782611276565b602082019050919050565b600060208201905081810360008301526112db8161129f565b9050919050565b7f496e76616c6964206e6577206f776e6572000000000000000000000000000000600082015250565b6000611318601183610f01565b9150611323826112e2565b602082019050919050565b600060208201905081810360008301526113478161130b565b9050919050565b7f4e487b7100000000000000000000000000000000000000000000000000000000600052601160045260246000fd5b600061138882610c67565b91507fffffffffffffffffffffffffffffffffffffffffffffffffffffffffffffffff82036113ba576113b961134e565b5b600182019050919050565b7f4e487b7100000000000000000000000000000000000000000000000000000000600052604160045260246000fd5b7f4e487b7100000000000000000000000000000000000000000000000000000000600052602260045260246000fd5b6000600282049050600182168061143b57607f821691505b60208210810361144e5761144d6113f4565b5b50919050565b60008190508160005260206000209050919050565b60006020601f8301049050919050565b600082821b905092915050565b6000600883026114b67fffffffffffffffffffffffffffffffffffffffffffffffffffffffffffffffff82611479565b6114c08683611479565b95508019841693508086168417925050509392505050565b6000819050919050565b60006114fd6114f86114f384610c67565b6114d8565b610c67565b9050919050565b6000819050919050565b611517836114e2565b61152b61152382611504565b848454611486565b825550505050565b600090565b611540611533565b61154b81848461150e565b505050565b5b8181101561156f57611564600082611538565b600181019050611551565b5050565b601f8211156115b45761158581611454565b61158e84611469565b8101602085101561159d578190505b6115b16115a985611469565b830182611550565b50505b505050565b600082821c905092915050565b60006115d7600019846008026115b9565b1980831691505092915050565b60006115f083836115c6565b9150826002028217905092915050565b61160982610ef6565b67ffffffffffffffff811115611622576116216113c5565b5b61162c8254611423565b611637828285611573565b600060209050601f83116001811461166a5760008415611658578287015190505b61166285826115e4565b8655506116ca565b601f19841661167886611454565b60005b828110156116a05784890151825560018201915060208501945060208101905061167b565b868310156116bd57848901516116b9601f8916826115c6565b8355505b6001600288020188555050505b505050505050565b82818337600083830152505050565b60006116ed8385610f01565b93506116fa8385846116d2565b61170383610f3c565b840190509392505050565b600060208201905081810360008301526117298184866116e1565b9050939250505056fea264697066735822122085199acaf7a6b75091b58375ef87d933ab1e0bf41b09127d91077846a4ea516564736f6c63430008130033",
  "linkReferences": {},
  "deployedLinkReferences": {},
  "immutableReferences": {},
  "inputSourceName": "project/contracts/LandRegistry.sol",
  "buildInfoId": "solc-0_8_19-08fa05d3a8abe6cbdfbb4a2b434694194c9718ee"
}